{
  "contractName": "HexaFinityToken",
  "abi": [
    {
      "inputs": [
        {
          "internalType": "address",
          "name": "_routerAddress",
          "type": "address"
        }
      ],
      "stateMutability": "nonpayable",
      "type": "constructor"
    },
    {
      "anonymous": false,
      "inputs": [
        {
          "indexed": true,
          "internalType": "address",
          "name": "owner",
          "type": "address"
        },
        {
          "indexed": true,
          "internalType": "address",
          "name": "spender",
          "type": "address"
        },
        {
          "indexed": false,
          "internalType": "uint256",
          "name": "value",
          "type": "uint256"
        }
      ],
      "name": "Approval",
      "type": "event"
    },
    {
      "anonymous": false,
      "inputs": [
        {
          "indexed": false,
          "internalType": "uint256",
          "name": "minTokensBeforeSwap",
          "type": "uint256"
        }
      ],
      "name": "MinTokensBeforeSwapUpdated",
      "type": "event"
    },
    {
      "anonymous": false,
      "inputs": [
        {
          "indexed": true,
          "internalType": "address",
          "name": "previousOwner",
          "type": "address"
        },
        {
          "indexed": true,
          "internalType": "address",
          "name": "newOwner",
          "type": "address"
        }
      ],
      "name": "OwnershipTransferred",
      "type": "event"
    },
    {
      "anonymous": false,
      "inputs": [
        {
          "indexed": false,
          "internalType": "uint256",
          "name": "tokensSwapped",
          "type": "uint256"
        },
        {
          "indexed": false,
          "internalType": "uint256",
          "name": "ethReceived",
          "type": "uint256"
        },
        {
          "indexed": false,
          "internalType": "uint256",
          "name": "tokensIntoLiqudity",
          "type": "uint256"
        }
      ],
      "name": "SwapAndLiquify",
      "type": "event"
    },
    {
      "anonymous": false,
      "inputs": [
        {
          "indexed": false,
          "internalType": "bool",
          "name": "enabled",
          "type": "bool"
        }
      ],
      "name": "SwapAndLiquifyEnabledUpdated",
      "type": "event"
    },
    {
      "anonymous": false,
      "inputs": [
        {
          "indexed": true,
          "internalType": "address",
          "name": "from",
          "type": "address"
        },
        {
          "indexed": true,
          "internalType": "address",
          "name": "to",
          "type": "address"
        },
        {
          "indexed": false,
          "internalType": "uint256",
          "name": "value",
          "type": "uint256"
        }
      ],
      "name": "Transfer",
      "type": "event"
    },
    {
      "anonymous": false,
      "inputs": [
        {
          "indexed": false,
          "internalType": "uint256",
          "name": "oldSellFeeMultiplier",
          "type": "uint256"
        },
        {
          "indexed": false,
          "internalType": "uint256",
          "name": "newSellFeeMultiplier",
          "type": "uint256"
        }
      ],
      "name": "UpdateSellFeeMultiplier",
      "type": "event"
    },
    {
      "inputs": [],
      "name": "DENOMINATOR",
      "outputs": [
        {
          "internalType": "uint256",
          "name": "",
          "type": "uint256"
        }
      ],
      "stateMutability": "view",
      "type": "function",
      "constant": true
    },
    {
      "inputs": [],
      "name": "_burnFee",
      "outputs": [
        {
          "internalType": "uint256",
          "name": "",
          "type": "uint256"
        }
      ],
      "stateMutability": "view",
      "type": "function",
      "constant": true
    },
    {
      "inputs": [],
      "name": "_liquidityFee",
      "outputs": [
        {
          "internalType": "uint256",
          "name": "",
          "type": "uint256"
        }
      ],
      "stateMutability": "view",
      "type": "function",
      "constant": true
    },
    {
      "inputs": [],
      "name": "_maxTxAmount",
      "outputs": [
        {
          "internalType": "uint256",
          "name": "",
          "type": "uint256"
        }
      ],
      "stateMutability": "view",
      "type": "function",
      "constant": true
    },
    {
      "inputs": [],
      "name": "_numTokensSellToAddToLiquidity",
      "outputs": [
        {
          "internalType": "uint256",
          "name": "",
          "type": "uint256"
        }
      ],
      "stateMutability": "view",
      "type": "function",
      "constant": true
    },
    {
      "inputs": [],
      "name": "_stakingFee",
      "outputs": [
        {
          "internalType": "uint256",
          "name": "",
          "type": "uint256"
        }
      ],
      "stateMutability": "view",
      "type": "function",
      "constant": true
    },
    {
      "inputs": [],
      "name": "_swappingFee",
      "outputs": [
        {
          "internalType": "uint256",
          "name": "",
          "type": "uint256"
        }
      ],
      "stateMutability": "view",
      "type": "function",
      "constant": true
    },
    {
      "inputs": [],
      "name": "_taxFee",
      "outputs": [
        {
          "internalType": "uint256",
          "name": "",
          "type": "uint256"
        }
      ],
      "stateMutability": "view",
      "type": "function",
      "constant": true
    },
    {
      "inputs": [],
      "name": "_unstakingFee",
      "outputs": [
        {
          "internalType": "uint256",
          "name": "",
          "type": "uint256"
        }
      ],
      "stateMutability": "view",
      "type": "function",
      "constant": true
    },
    {
      "inputs": [],
      "name": "owner",
      "outputs": [
        {
          "internalType": "address",
          "name": "",
          "type": "address"
        }
      ],
      "stateMutability": "view",
      "type": "function",
      "constant": true
    },
    {
      "inputs": [],
      "name": "renounceOwnership",
      "outputs": [],
      "stateMutability": "nonpayable",
      "type": "function"
    },
    {
      "inputs": [],
      "name": "swapAndLiquifyEnabled",
      "outputs": [
        {
          "internalType": "bool",
          "name": "",
          "type": "bool"
        }
      ],
      "stateMutability": "view",
      "type": "function",
      "constant": true
    },
    {
      "inputs": [],
      "name": "taxReceiveAddress",
      "outputs": [
        {
          "internalType": "address",
          "name": "",
          "type": "address"
        }
      ],
      "stateMutability": "view",
      "type": "function",
      "constant": true
    },
    {
      "inputs": [
        {
          "internalType": "address",
          "name": "newOwner",
          "type": "address"
        }
      ],
      "name": "transferOwnership",
      "outputs": [],
      "stateMutability": "nonpayable",
      "type": "function"
    },
    {
      "inputs": [],
      "name": "uniswapV2Pair",
      "outputs": [
        {
          "internalType": "address",
          "name": "",
          "type": "address"
        }
      ],
      "stateMutability": "view",
      "type": "function",
      "constant": true
    },
    {
      "inputs": [],
      "name": "uniswapV2Router",
      "outputs": [
        {
          "internalType": "contract IUniswapV2Router02",
          "name": "",
          "type": "address"
        }
      ],
      "stateMutability": "view",
      "type": "function",
      "constant": true
    },
    {
      "stateMutability": "payable",
      "type": "receive",
      "payable": true
    },
    {
      "inputs": [],
      "name": "name",
      "outputs": [
        {
          "internalType": "string",
          "name": "",
          "type": "string"
        }
      ],
      "stateMutability": "view",
      "type": "function",
      "constant": true
    },
    {
      "inputs": [],
      "name": "symbol",
      "outputs": [
        {
          "internalType": "string",
          "name": "",
          "type": "string"
        }
      ],
      "stateMutability": "view",
      "type": "function",
      "constant": true
    },
    {
      "inputs": [],
      "name": "decimals",
      "outputs": [
        {
          "internalType": "uint8",
          "name": "",
          "type": "uint8"
        }
      ],
      "stateMutability": "view",
      "type": "function",
      "constant": true
    },
    {
      "inputs": [],
      "name": "totalSupply",
      "outputs": [
        {
          "internalType": "uint256",
          "name": "",
          "type": "uint256"
        }
      ],
      "stateMutability": "view",
      "type": "function",
      "constant": true
    },
    {
      "inputs": [
        {
          "internalType": "address",
          "name": "account",
          "type": "address"
        }
      ],
      "name": "balanceOf",
      "outputs": [
        {
          "internalType": "uint256",
          "name": "",
          "type": "uint256"
        }
      ],
      "stateMutability": "view",
      "type": "function",
      "constant": true
    },
    {
      "inputs": [
        {
          "internalType": "address",
          "name": "recipient",
          "type": "address"
        },
        {
          "internalType": "uint256",
          "name": "amount",
          "type": "uint256"
        }
      ],
      "name": "transfer",
      "outputs": [
        {
          "internalType": "bool",
          "name": "",
          "type": "bool"
        }
      ],
      "stateMutability": "nonpayable",
      "type": "function"
    },
    {
      "inputs": [
        {
          "internalType": "address",
          "name": "owner",
          "type": "address"
        },
        {
          "internalType": "address",
          "name": "spender",
          "type": "address"
        }
      ],
      "name": "allowance",
      "outputs": [
        {
          "internalType": "uint256",
          "name": "",
          "type": "uint256"
        }
      ],
      "stateMutability": "view",
      "type": "function",
      "constant": true
    },
    {
      "inputs": [
        {
          "internalType": "address",
          "name": "spender",
          "type": "address"
        },
        {
          "internalType": "uint256",
          "name": "amount",
          "type": "uint256"
        }
      ],
      "name": "approve",
      "outputs": [
        {
          "internalType": "bool",
          "name": "",
          "type": "bool"
        }
      ],
      "stateMutability": "nonpayable",
      "type": "function"
    },
    {
      "inputs": [
        {
          "internalType": "address",
          "name": "sender",
          "type": "address"
        },
        {
          "internalType": "address",
          "name": "recipient",
          "type": "address"
        },
        {
          "internalType": "uint256",
          "name": "amount",
          "type": "uint256"
        }
      ],
      "name": "transferFrom",
      "outputs": [
        {
          "internalType": "bool",
          "name": "",
          "type": "bool"
        }
      ],
      "stateMutability": "nonpayable",
      "type": "function"
    },
    {
      "inputs": [
        {
          "internalType": "address",
          "name": "spender",
          "type": "address"
        },
        {
          "internalType": "uint256",
          "name": "addedValue",
          "type": "uint256"
        }
      ],
      "name": "increaseAllowance",
      "outputs": [
        {
          "internalType": "bool",
          "name": "",
          "type": "bool"
        }
      ],
      "stateMutability": "nonpayable",
      "type": "function"
    },
    {
      "inputs": [
        {
          "internalType": "address",
          "name": "spender",
          "type": "address"
        },
        {
          "internalType": "uint256",
          "name": "subtractedValue",
          "type": "uint256"
        }
      ],
      "name": "decreaseAllowance",
      "outputs": [
        {
          "internalType": "bool",
          "name": "",
          "type": "bool"
        }
      ],
      "stateMutability": "nonpayable",
      "type": "function"
    },
    {
      "inputs": [
        {
          "internalType": "address",
          "name": "account",
          "type": "address"
        }
      ],
      "name": "isExcludedFromReward",
      "outputs": [
        {
          "internalType": "bool",
          "name": "",
          "type": "bool"
        }
      ],
      "stateMutability": "view",
      "type": "function",
      "constant": true
    },
    {
      "inputs": [],
      "name": "totalFees",
      "outputs": [
        {
          "internalType": "uint256",
          "name": "",
          "type": "uint256"
        }
      ],
      "stateMutability": "view",
      "type": "function",
      "constant": true
    },
    {
      "inputs": [],
      "name": "totalBurn",
      "outputs": [
        {
          "internalType": "uint256",
          "name": "",
          "type": "uint256"
        }
      ],
      "stateMutability": "view",
      "type": "function",
      "constant": true
    },
    {
      "inputs": [
        {
          "internalType": "uint256",
          "name": "tAmount",
          "type": "uint256"
        }
      ],
      "name": "deliver",
      "outputs": [],
      "stateMutability": "nonpayable",
      "type": "function"
    },
    {
      "inputs": [
        {
          "internalType": "uint256",
          "name": "tAmount",
          "type": "uint256"
        },
        {
          "internalType": "bool",
          "name": "deductTransferFee",
          "type": "bool"
        }
      ],
      "name": "reflectionFromToken",
      "outputs": [
        {
          "internalType": "uint256",
          "name": "",
          "type": "uint256"
        }
      ],
      "stateMutability": "view",
      "type": "function",
      "constant": true
    },
    {
      "inputs": [
        {
          "internalType": "uint256",
          "name": "rAmount",
          "type": "uint256"
        }
      ],
      "name": "tokenFromReflection",
      "outputs": [
        {
          "internalType": "uint256",
          "name": "",
          "type": "uint256"
        }
      ],
      "stateMutability": "view",
      "type": "function",
      "constant": true
    },
    {
      "inputs": [
        {
          "internalType": "address",
          "name": "account",
          "type": "address"
        }
      ],
      "name": "excludeFromReward",
      "outputs": [],
      "stateMutability": "nonpayable",
      "type": "function"
    },
    {
      "inputs": [
        {
          "internalType": "address",
          "name": "account",
          "type": "address"
        }
      ],
      "name": "includeInReward",
      "outputs": [],
      "stateMutability": "nonpayable",
      "type": "function"
    },
    {
      "inputs": [
        {
          "internalType": "address",
          "name": "account",
          "type": "address"
        }
      ],
      "name": "isExcludedFromFee",
      "outputs": [
        {
          "internalType": "bool",
          "name": "",
          "type": "bool"
        }
      ],
      "stateMutability": "view",
      "type": "function",
      "constant": true
    },
    {
      "inputs": [
        {
          "internalType": "address",
          "name": "account",
          "type": "address"
        }
      ],
      "name": "excludeFromFee",
      "outputs": [],
      "stateMutability": "nonpayable",
      "type": "function"
    },
    {
      "inputs": [
        {
          "internalType": "address",
          "name": "account",
          "type": "address"
        }
      ],
      "name": "includeInFee",
      "outputs": [],
      "stateMutability": "nonpayable",
      "type": "function"
    },
    {
      "inputs": [],
      "name": "enableAllFees",
      "outputs": [],
      "stateMutability": "nonpayable",
      "type": "function"
    },
    {
      "inputs": [],
      "name": "disableAllFees",
      "outputs": [],
      "stateMutability": "nonpayable",
      "type": "function"
    },
    {
      "inputs": [
        {
          "internalType": "address",
          "name": "newWallet",
          "type": "address"
        }
      ],
      "name": "setTaxReceiveAddress",
      "outputs": [],
      "stateMutability": "nonpayable",
      "type": "function"
    },
    {
      "inputs": [
        {
          "internalType": "uint256",
          "name": "maxTxAmount",
          "type": "uint256"
        }
      ],
      "name": "setMaxTxPercent",
      "outputs": [],
      "stateMutability": "nonpayable",
      "type": "function"
    },
    {
      "inputs": [
        {
          "internalType": "uint256",
          "name": "numTokensSellToAddToLiquidity",
          "type": "uint256"
        }
      ],
      "name": "setNumTokensSellToAddToLiquidity",
      "outputs": [],
      "stateMutability": "nonpayable",
      "type": "function"
    },
    {
      "inputs": [
        {
          "internalType": "bool",
          "name": "_enabled",
          "type": "bool"
        }
      ],
      "name": "setSwapAndLiquifyEnabled",
      "outputs": [],
      "stateMutability": "nonpayable",
      "type": "function"
    },
    {
      "inputs": [
        {
          "internalType": "uint256",
          "name": "taxFee",
          "type": "uint256"
        }
      ],
      "name": "setTaxFee",
      "outputs": [],
      "stateMutability": "nonpayable",
      "type": "function"
    },
    {
      "inputs": [
        {
          "internalType": "uint256",
          "name": "burnFee",
          "type": "uint256"
        }
      ],
      "name": "setBurnFee",
      "outputs": [],
      "stateMutability": "nonpayable",
      "type": "function"
    },
    {
      "inputs": [
        {
          "internalType": "uint256",
          "name": "swappingFee",
          "type": "uint256"
        }
      ],
      "name": "setSwappingFee",
      "outputs": [],
      "stateMutability": "nonpayable",
      "type": "function"
    },
    {
      "inputs": [
        {
          "internalType": "uint256",
          "name": "stakingFee",
          "type": "uint256"
        }
      ],
      "name": "setStakingFee",
      "outputs": [],
      "stateMutability": "nonpayable",
      "type": "function"
    },
    {
      "inputs": [
        {
          "internalType": "uint256",
          "name": "unstakingFee",
          "type": "uint256"
        }
      ],
      "name": "setUnstakingFee",
      "outputs": [],
      "stateMutability": "nonpayable",
      "type": "function"
    },
    {
      "inputs": [
        {
          "internalType": "uint256",
          "name": "liquidityFee",
          "type": "uint256"
        }
      ],
      "name": "setLiquidityFee",
      "outputs": [],
      "stateMutability": "nonpayable",
      "type": "function"
    }
  ],
  "bytecode": "0x60c06040526040518060400160405280600a81526020017f4865786146696e6974790000000000000000000000000000000000000000000081525060079080519060200190620000519291906200076f565b506040518060400160405280600481526020017f4845584100000000000000000000000000000000000000000000000000000000815250600890805190602001906200009f9291906200076f565b506012600960006101000a81548160ff021916908360ff160217905550600960009054906101000a900460ff1660ff16600a620000dd919062000929565b648bb2c97000620000ef919062000a66565b600a55600a5460001962000104919062000b76565b60001962000113919062000ac7565b600b55610190600e55600e54600f55600a60105560105460115560146012556012546013556005601455601454601555601460165560165460175560c860185560185460195573a1e8112114ca3bf0a3e3e6d4cdd1b4fbf7ce25b3601a60006101000a81548173ffffffffffffffffffffffffffffffffffffffff021916908373ffffffffffffffffffffffffffffffffffffffff1602179055506000601a60156101000a81548160ff021916908315150217905550600960009054906101000a900460ff1660ff16600a620001ea919062000929565b6302625a00620001fb919062000a66565b601b55600960009054906101000a900460ff1660ff16600a6200021f919062000929565b6302625a0062000230919062000a66565b601c553480156200024057600080fd5b506040516200618a3803806200618a833981810160405281019062000266919062000836565b620002866200027a6200067a60201b60201c565b6200068260201b60201c565b600b54600160006200029d6200067a60201b60201c565b73ffffffffffffffffffffffffffffffffffffffff1673ffffffffffffffffffffffffffffffffffffffff1681526020019081526020016000208190555060008190508073ffffffffffffffffffffffffffffffffffffffff1663c45a01556040518163ffffffff1660e01b815260040160206040518083038186803b1580156200032757600080fd5b505afa1580156200033c573d6000803e3d6000fd5b505050506040513d601f19601f8201168201806040525081019062000362919062000836565b73ffffffffffffffffffffffffffffffffffffffff1663c9c65396308373ffffffffffffffffffffffffffffffffffffffff1663ad5c46486040518163ffffffff1660e01b815260040160206040518083038186803b158015620003c557600080fd5b505afa158015620003da573d6000803e3d6000fd5b505050506040513d601f19601f8201168201806040525081019062000400919062000836565b6040518363ffffffff1660e01b81526004016200041f92919062000884565b602060405180830381600087803b1580156200043a57600080fd5b505af11580156200044f573d6000803e3d6000fd5b505050506040513d601f19601f8201168201806040525081019062000475919062000836565b73ffffffffffffffffffffffffffffffffffffffff1660a08173ffffffffffffffffffffffffffffffffffffffff1660601b815250508073ffffffffffffffffffffffffffffffffffffffff1660808173ffffffffffffffffffffffffffffffffffffffff1660601b81525050600160046000620004f86200074660201b60201c565b73ffffffffffffffffffffffffffffffffffffffff1673ffffffffffffffffffffffffffffffffffffffff16815260200190815260200160002060006101000a81548160ff0219169083151502179055506001600460003073ffffffffffffffffffffffffffffffffffffffff1673ffffffffffffffffffffffffffffffffffffffff16815260200190815260200160002060006101000a81548160ff0219169083151502179055506001600460008473ffffffffffffffffffffffffffffffffffffffff1673ffffffffffffffffffffffffffffffffffffffff16815260200190815260200160002060006101000a81548160ff021916908315150217905550620006096200067a60201b60201c565b73ffffffffffffffffffffffffffffffffffffffff16600073ffffffffffffffffffffffffffffffffffffffff167fddf252ad1be2c89b69c2b068fc378daa952ba7f163c4a11628f55a4df523b3ef600a546040516200066a9190620008b1565b60405180910390a3505062000c62565b600033905090565b60008060009054906101000a900473ffffffffffffffffffffffffffffffffffffffff169050816000806101000a81548173ffffffffffffffffffffffffffffffffffffffff021916908373ffffffffffffffffffffffffffffffffffffffff1602179055508173ffffffffffffffffffffffffffffffffffffffff168173ffffffffffffffffffffffffffffffffffffffff167f8be0079c531659141344cd1fd0a4f28419497f9722a3daafe3b4186f6b6457e060405160405180910390a35050565b60008060009054906101000a900473ffffffffffffffffffffffffffffffffffffffff16905090565b8280546200077d9062000b40565b90600052602060002090601f016020900481019282620007a15760008555620007ed565b82601f10620007bc57805160ff1916838001178555620007ed565b82800160010185558215620007ed579182015b82811115620007ec578251825591602001919060010190620007cf565b5b509050620007fc919062000800565b5090565b5b808211156200081b57600081600090555060010162000801565b5090565b600081519050620008308162000c48565b92915050565b6000602082840312156200084957600080fd5b600062000859848285016200081f565b91505092915050565b6200086d8162000b02565b82525050565b6200087e8162000b36565b82525050565b60006040820190506200089b600083018562000862565b620008aa602083018462000862565b9392505050565b6000602082019050620008c8600083018462000873565b92915050565b6000808291508390505b60018511156200092057808604811115620008f857620008f762000bae565b5b6001851615620009085780820291505b8081029050620009188562000c3b565b9450620008d8565b94509492505050565b6000620009368262000b36565b9150620009438362000b36565b9250620009727fffffffffffffffffffffffffffffffffffffffffffffffffffffffffffffffff84846200097a565b905092915050565b6000826200098c576001905062000a5f565b816200099c576000905062000a5f565b8160018114620009b55760028114620009c057620009f6565b600191505062000a5f565b60ff841115620009d557620009d462000bae565b5b8360020a915084821115620009ef57620009ee62000bae565b5b5062000a5f565b5060208310610133831016604e8410600b841016171562000a305782820a90508381111562000a2a5762000a2962000bae565b5b62000a5f565b62000a3f8484846001620008ce565b9250905081840481111562000a595762000a5862000bae565b5b81810290505b9392505050565b600062000a738262000b36565b915062000a808362000b36565b9250817fffffffffffffffffffffffffffffffffffffffffffffffffffffffffffffffff048311821515161562000abc5762000abb62000bae565b5b828202905092915050565b600062000ad48262000b36565b915062000ae18362000b36565b92508282101562000af75762000af662000bae565b5b828203905092915050565b600062000b0f8262000b16565b9050919050565b600073ffffffffffffffffffffffffffffffffffffffff82169050919050565b6000819050919050565b6000600282049050600182168062000b5957607f821691505b6020821081141562000b705762000b6f62000c0c565b5b50919050565b600062000b838262000b36565b915062000b908362000b36565b92508262000ba35762000ba262000bdd565b5b828206905092915050565b7f4e487b7100000000000000000000000000000000000000000000000000000000600052601160045260246000fd5b7f4e487b7100000000000000000000000000000000000000000000000000000000600052601260045260246000fd5b7f4e487b7100000000000000000000000000000000000000000000000000000000600052602260045260246000fd5b60008160011c9050919050565b62000c538162000b02565b811462000c5f57600080fd5b50565b60805160601c60a05160601c6154d262000cb86000396000818161168d0152612946015260008181610ceb015281816137e8015281816138fe01528181613925015281816139c101526139e801526154d26000f3fe6080604052600436106102cd5760003560e01c80636bc87c3a11610175578063a457c2d7116100dc578063c49b9a8011610095578063ea2f0b371161006f578063ea2f0b3714610b17578063f0f165af14610b40578063f2fde38b14610b69578063ffc7863514610b92576102d4565b8063c49b9a8014610a88578063d543dbeb14610ab1578063dd62ed3e14610ada576102d4565b8063a457c2d714610964578063a9059cbb146109a1578063ae850281146109de578063b3f22ce314610a09578063c0b0fda214610a34578063c4081a4c14610a5f576102d4565b8063829c1c571161012e578063829c1c571461085257806388f820201461087b5780638da5cb5b146108b8578063918f8674146108e357806395d89b411461090e578063a1bd2a6614610939576102d4565b80636bc87c3a1461076857806370a0823114610793578063715018a6146107d0578063741af87f146107e75780637c78421c146107fe5780637d1db4a514610827576102d4565b80633685d41911610234578063437823ec116101ed5780634a74bb02116101c75780634a74bb02146106ae5780634bf2c7c9146106d957806352390c02146107025780635342acb41461072b576102d4565b8063437823ec1461061d5780634549b0391461064657806349bd5a5e14610683576102d4565b80633685d4191461050f57806339509351146105385780633b124fe7146105755780633bd5d173146105a05780633c9f861d146105c9578063410dbf7e146105f4576102d4565b806318160ddd1161028657806318160ddd146103eb578063206ed35b1461041657806323b872dd146104415780632d8381191461047e578063313ce567146104bb578063357bf15c146104e6576102d4565b806306fdde03146102d9578063095ea7b3146103045780630f40531e1461034157806313114a9d1461036a5780631694505e14610395578063171d0a91146103c0576102d4565b366102d457005b600080fd5b3480156102e557600080fd5b506102ee610ba9565b6040516102fb9190614e6d565b60405180910390f35b34801561031057600080fd5b5061032b6004803603810190610326919061468e565b610c3b565b6040516103389190614e37565b60405180910390f35b34801561034d57600080fd5b50610368600480360381019061036391906146f3565b610c59565b005b34801561037657600080fd5b5061037f610cdf565b60405161038c919061504f565b60405180910390f35b3480156103a157600080fd5b506103aa610ce9565b6040516103b79190614e52565b60405180910390f35b3480156103cc57600080fd5b506103d5610d0d565b6040516103e2919061504f565b60405180910390f35b3480156103f757600080fd5b50610400610d13565b60405161040d919061504f565b60405180910390f35b34801561042257600080fd5b5061042b610d1d565b604051610438919061504f565b60405180910390f35b34801561044d57600080fd5b506104686004803603810190610463919061463f565b610d23565b6040516104759190614e37565b60405180910390f35b34801561048a57600080fd5b506104a560048036038101906104a091906146f3565b610ddb565b6040516104b2919061504f565b60405180910390f35b3480156104c757600080fd5b506104d0610e42565b6040516104dd91906150fb565b60405180910390f35b3480156104f257600080fd5b5061050d600480360381019061050891906146f3565b610e59565b005b34801561051b57600080fd5b50610536600480360381019061053191906145b1565b610edf565b005b34801561054457600080fd5b5061055f600480360381019061055a919061468e565b6112ad565b60405161056c9190614e37565b60405180910390f35b34801561058157600080fd5b5061058a611359565b604051610597919061504f565b60405180910390f35b3480156105ac57600080fd5b506105c760048036038101906105c291906146f3565b61135f565b005b3480156105d557600080fd5b506105de61149c565b6040516105eb919061504f565b60405180910390f35b34801561060057600080fd5b5061061b600480360381019061061691906146f3565b6114a6565b005b34801561062957600080fd5b50610644600480360381019061063f91906145b1565b61152c565b005b34801561065257600080fd5b5061066d6004803603810190610668919061471c565b611603565b60405161067a919061504f565b60405180910390f35b34801561068f57600080fd5b5061069861168b565b6040516106a59190614dbb565b60405180910390f35b3480156106ba57600080fd5b506106c36116af565b6040516106d09190614e37565b60405180910390f35b3480156106e557600080fd5b5061070060048036038101906106fb91906146f3565b6116c2565b005b34801561070e57600080fd5b50610729600480360381019061072491906145b1565b611748565b005b34801561073757600080fd5b50610752600480360381019061074d91906145b1565b611aae565b60405161075f9190614e37565b60405180910390f35b34801561077457600080fd5b5061077d611b04565b60405161078a919061504f565b60405180910390f35b34801561079f57600080fd5b506107ba60048036038101906107b591906145b1565b611b0a565b6040516107c7919061504f565b60405180910390f35b3480156107dc57600080fd5b506107e5611bf5565b005b3480156107f357600080fd5b506107fc611c7d565b005b34801561080a57600080fd5b50610825600480360381019061082091906145b1565b611d0d565b005b34801561083357600080fd5b5061083c611dcd565b604051610849919061504f565b60405180910390f35b34801561085e57600080fd5b50610879600480360381019061087491906146f3565b611dd3565b005b34801561088757600080fd5b506108a2600480360381019061089d91906145b1565b611e59565b6040516108af9190614e37565b60405180910390f35b3480156108c457600080fd5b506108cd611eaf565b6040516108da9190614dbb565b60405180910390f35b3480156108ef57600080fd5b506108f8611ed8565b604051610905919061504f565b60405180910390f35b34801561091a57600080fd5b50610923611ede565b6040516109309190614e6d565b60405180910390f35b34801561094557600080fd5b5061094e611f70565b60405161095b9190614dbb565b60405180910390f35b34801561097057600080fd5b5061098b6004803603810190610986919061468e565b611f96565b6040516109989190614e37565b60405180910390f35b3480156109ad57600080fd5b506109c860048036038101906109c3919061468e565b612042565b6040516109d59190614e37565b60405180910390f35b3480156109ea57600080fd5b506109f3612060565b604051610a00919061504f565b60405180910390f35b348015610a1557600080fd5b50610a1e612066565b604051610a2b919061504f565b60405180910390f35b348015610a4057600080fd5b50610a4961206c565b604051610a56919061504f565b60405180910390f35b348015610a6b57600080fd5b50610a866004803603810190610a8191906146f3565b612072565b005b348015610a9457600080fd5b50610aaf6004803603810190610aaa91906146ca565b6120f8565b005b348015610abd57600080fd5b50610ad86004803603810190610ad391906146f3565b6121c8565b005b348015610ae657600080fd5b50610b016004803603810190610afc9190614603565b612261565b604051610b0e919061504f565b60405180910390f35b348015610b2357600080fd5b50610b3e6004803603810190610b3991906145b1565b6122e8565b005b348015610b4c57600080fd5b50610b676004803603810190610b6291906146f3565b6123bf565b005b348015610b7557600080fd5b50610b906004803603810190610b8b91906145b1565b612458565b005b348015610b9e57600080fd5b50610ba7612550565b005b606060078054610bb89061533e565b80601f0160208091040260200160405190810160405280929190818152602001828054610be49061533e565b8015610c315780601f10610c0657610100808354040283529160200191610c31565b820191906000526020600020905b815481529060010190602001808311610c1457829003601f168201915b5050505050905090565b6000610c4f610c48612616565b848461261e565b6001905092915050565b610c61612616565b73ffffffffffffffffffffffffffffffffffffffff16610c7f611eaf565b73ffffffffffffffffffffffffffffffffffffffff1614610cd5576040517f08c379a0000000000000000000000000000000000000000000000000000000008152600401610ccc90614f6f565b60405180910390fd5b8060128190555050565b6000600c54905090565b7f000000000000000000000000000000000000000000000000000000000000000081565b60125481565b6000600a54905090565b60165481565b6000610d308484846127e9565b610dd084610d3c612616565b84600360008973ffffffffffffffffffffffffffffffffffffffff1673ffffffffffffffffffffffffffffffffffffffff1681526020019081526020016000206000610d86612616565b73ffffffffffffffffffffffffffffffffffffffff1673ffffffffffffffffffffffffffffffffffffffff16815260200190815260200160002054610dcb919061524c565b61261e565b600190509392505050565b6000600b54821115610e22576040517f08c379a0000000000000000000000000000000000000000000000000000000008152600401610e1990614eaf565b60405180910390fd5b6000610e2c6129d3565b90508083610e3a91906151c1565b915050919050565b6000600960009054906101000a900460ff16905090565b610e61612616565b73ffffffffffffffffffffffffffffffffffffffff16610e7f611eaf565b73ffffffffffffffffffffffffffffffffffffffff1614610ed5576040517f08c379a0000000000000000000000000000000000000000000000000000000008152600401610ecc90614f6f565b60405180910390fd5b8060188190555050565b610ee7612616565b73ffffffffffffffffffffffffffffffffffffffff16610f05611eaf565b73ffffffffffffffffffffffffffffffffffffffff1614610f5b576040517f08c379a0000000000000000000000000000000000000000000000000000000008152600401610f5290614f6f565b60405180910390fd5b600560008273ffffffffffffffffffffffffffffffffffffffff1673ffffffffffffffffffffffffffffffffffffffff16815260200190815260200160002060009054906101000a900460ff16610fe7576040517f08c379a0000000000000000000000000000000000000000000000000000000008152600401610fde90614f0f565b60405180910390fd5b60005b6006805490508110156112a9578173ffffffffffffffffffffffffffffffffffffffff1660068281548110611048577f4e487b7100000000000000000000000000000000000000000000000000000000600052603260045260246000fd5b9060005260206000200160009054906101000a900473ffffffffffffffffffffffffffffffffffffffff1673ffffffffffffffffffffffffffffffffffffffff16141561129657600660016006805490506110a3919061524c565b815481106110da577f4e487b7100000000000000000000000000000000000000000000000000000000600052603260045260246000fd5b9060005260206000200160009054906101000a900473ffffffffffffffffffffffffffffffffffffffff166006828154811061113f577f4e487b7100000000000000000000000000000000000000000000000000000000600052603260045260246000fd5b9060005260206000200160006101000a81548173ffffffffffffffffffffffffffffffffffffffff021916908373ffffffffffffffffffffffffffffffffffffffff1602179055506000600260008473ffffffffffffffffffffffffffffffffffffffff1673ffffffffffffffffffffffffffffffffffffffff168152602001908152602001600020819055506000600560008473ffffffffffffffffffffffffffffffffffffffff1673ffffffffffffffffffffffffffffffffffffffff16815260200190815260200160002060006101000a81548160ff021916908315150217905550600680548061125c577f4e487b7100000000000000000000000000000000000000000000000000000000600052603160045260246000fd5b6001900381819060005260206000200160006101000a81549073ffffffffffffffffffffffffffffffffffffffff021916905590556112a9565b80806112a190615370565b915050610fea565b5050565b600061134f6112ba612616565b8484600360006112c8612616565b73ffffffffffffffffffffffffffffffffffffffff1673ffffffffffffffffffffffffffffffffffffffff16815260200190815260200160002060008873ffffffffffffffffffffffffffffffffffffffff1673ffffffffffffffffffffffffffffffffffffffff1681526020019081526020016000205461134a919061516b565b61261e565b6001905092915050565b600e5481565b6000611369612616565b9050600560008273ffffffffffffffffffffffffffffffffffffffff1673ffffffffffffffffffffffffffffffffffffffff16815260200190815260200160002060009054906101000a900460ff16156113f8576040517f08c379a00000000000000000000000000000000000000000000000000000000081526004016113ef9061500f565b60405180910390fd5b60006114026129d3565b8361140d91906151f2565b905080600160008473ffffffffffffffffffffffffffffffffffffffff1673ffffffffffffffffffffffffffffffffffffffff168152602001908152602001600020600082825461145e919061524c565b9250508190555080600b6000828254611477919061524c565b9250508190555082600c6000828254611490919061516b565b92505081905550505050565b6000600d54905090565b6114ae612616565b73ffffffffffffffffffffffffffffffffffffffff166114cc611eaf565b73ffffffffffffffffffffffffffffffffffffffff1614611522576040517f08c379a000000000000000000000000000000000000000000000000000000000815260040161151990614f6f565b60405180910390fd5b8060148190555050565b611534612616565b73ffffffffffffffffffffffffffffffffffffffff16611552611eaf565b73ffffffffffffffffffffffffffffffffffffffff16146115a8576040517f08c379a000000000000000000000000000000000000000000000000000000000815260040161159f90614f6f565b60405180910390fd5b6001600460008373ffffffffffffffffffffffffffffffffffffffff1673ffffffffffffffffffffffffffffffffffffffff16815260200190815260200160002060006101000a81548160ff02191690831515021790555050565b6000600a5483111561164a576040517f08c379a000000000000000000000000000000000000000000000000000000000815260040161164190614f2f565b60405180910390fd5b8161166f5760006116596129d3565b8461166491906151f2565b905080915050611685565b600061167a846129f7565b602001519050809150505b92915050565b7f000000000000000000000000000000000000000000000000000000000000000081565b601a60159054906101000a900460ff1681565b6116ca612616565b73ffffffffffffffffffffffffffffffffffffffff166116e8611eaf565b73ffffffffffffffffffffffffffffffffffffffff161461173e576040517f08c379a000000000000000000000000000000000000000000000000000000000815260040161173590614f6f565b60405180910390fd5b8060108190555050565b611750612616565b73ffffffffffffffffffffffffffffffffffffffff1661176e611eaf565b73ffffffffffffffffffffffffffffffffffffffff16146117c4576040517f08c379a00000000000000000000000000000000000000000000000000000000081526004016117bb90614f6f565b60405180910390fd5b7310ed43c718714eb63d5aa57b78b54704e256024e73ffffffffffffffffffffffffffffffffffffffff168173ffffffffffffffffffffffffffffffffffffffff161415611847576040517f08c379a000000000000000000000000000000000000000000000000000000000815260040161183e90614fef565b60405180910390fd5b600560008273ffffffffffffffffffffffffffffffffffffffff1673ffffffffffffffffffffffffffffffffffffffff16815260200190815260200160002060009054906101000a900460ff16156118d4576040517f08c379a00000000000000000000000000000000000000000000000000000000081526004016118cb90614f0f565b60405180910390fd5b60326006805490501061191c576040517f08c379a00000000000000000000000000000000000000000000000000000000081526004016119139061502f565b60405180910390fd5b6000600160008373ffffffffffffffffffffffffffffffffffffffff1673ffffffffffffffffffffffffffffffffffffffff1681526020019081526020016000205411156119f0576119ac600160008373ffffffffffffffffffffffffffffffffffffffff1673ffffffffffffffffffffffffffffffffffffffff16815260200190815260200160002054610ddb565b600260008373ffffffffffffffffffffffffffffffffffffffff1673ffffffffffffffffffffffffffffffffffffffff168152602001908152602001600020819055505b6001600560008373ffffffffffffffffffffffffffffffffffffffff1673ffffffffffffffffffffffffffffffffffffffff16815260200190815260200160002060006101000a81548160ff0219169083151502179055506006819080600181540180825580915050600190039060005260206000200160009091909190916101000a81548173ffffffffffffffffffffffffffffffffffffffff021916908373ffffffffffffffffffffffffffffffffffffffff16021790555050565b6000600460008373ffffffffffffffffffffffffffffffffffffffff1673ffffffffffffffffffffffffffffffffffffffff16815260200190815260200160002060009054906101000a900460ff169050919050565b60185481565b6000600560008373ffffffffffffffffffffffffffffffffffffffff1673ffffffffffffffffffffffffffffffffffffffff16815260200190815260200160002060009054906101000a900460ff1615611ba557600260008373ffffffffffffffffffffffffffffffffffffffff1673ffffffffffffffffffffffffffffffffffffffff168152602001908152602001600020549050611bf0565b611bed600160008473ffffffffffffffffffffffffffffffffffffffff1673ffffffffffffffffffffffffffffffffffffffff16815260200190815260200160002054610ddb565b90505b919050565b611bfd612616565b73ffffffffffffffffffffffffffffffffffffffff16611c1b611eaf565b73ffffffffffffffffffffffffffffffffffffffff1614611c71576040517f08c379a0000000000000000000000000000000000000000000000000000000008152600401611c6890614f6f565b60405180910390fd5b611c7b6000612ae8565b565b611c85612616565b73ffffffffffffffffffffffffffffffffffffffff16611ca3611eaf565b73ffffffffffffffffffffffffffffffffffffffff1614611cf9576040517f08c379a0000000000000000000000000000000000000000000000000000000008152600401611cf090614f6f565b60405180910390fd5b611d01612bac565b611d0b60006120f8565b565b611d15612616565b73ffffffffffffffffffffffffffffffffffffffff16611d33611eaf565b73ffffffffffffffffffffffffffffffffffffffff1614611d89576040517f08c379a0000000000000000000000000000000000000000000000000000000008152600401611d8090614f6f565b60405180910390fd5b80601a60006101000a81548173ffffffffffffffffffffffffffffffffffffffff021916908373ffffffffffffffffffffffffffffffffffffffff16021790555050565b601b5481565b611ddb612616565b73ffffffffffffffffffffffffffffffffffffffff16611df9611eaf565b73ffffffffffffffffffffffffffffffffffffffff1614611e4f576040517f08c379a0000000000000000000000000000000000000000000000000000000008152600401611e4690614f6f565b60405180910390fd5b8060168190555050565b6000600560008373ffffffffffffffffffffffffffffffffffffffff1673ffffffffffffffffffffffffffffffffffffffff16815260200190815260200160002060009054906101000a900460ff169050919050565b60008060009054906101000a900473ffffffffffffffffffffffffffffffffffffffff16905090565b61271081565b606060088054611eed9061533e565b80601f0160208091040260200160405190810160405280929190818152602001828054611f199061533e565b8015611f665780601f10611f3b57610100808354040283529160200191611f66565b820191906000526020600020905b815481529060010190602001808311611f4957829003601f168201915b5050505050905090565b601a60009054906101000a900473ffffffffffffffffffffffffffffffffffffffff1681565b6000612038611fa3612616565b848460036000611fb1612616565b73ffffffffffffffffffffffffffffffffffffffff1673ffffffffffffffffffffffffffffffffffffffff16815260200190815260200160002060008873ffffffffffffffffffffffffffffffffffffffff1673ffffffffffffffffffffffffffffffffffffffff16815260200190815260200160002054612033919061524c565b61261e565b6001905092915050565b600061205661204f612616565b84846127e9565b6001905092915050565b60145481565b601c5481565b60105481565b61207a612616565b73ffffffffffffffffffffffffffffffffffffffff16612098611eaf565b73ffffffffffffffffffffffffffffffffffffffff16146120ee576040517f08c379a00000000000000000000000000000000000000000000000000000000081526004016120e590614f6f565b60405180910390fd5b80600e8190555050565b612100612616565b73ffffffffffffffffffffffffffffffffffffffff1661211e611eaf565b73ffffffffffffffffffffffffffffffffffffffff1614612174576040517f08c379a000000000000000000000000000000000000000000000000000000000815260040161216b90614f6f565b60405180910390fd5b80601a60156101000a81548160ff0219169083151502179055507f53726dfcaf90650aa7eb35524f4d3220f07413c8d6cb404cc8c18bf5591bc159816040516121bd9190614e37565b60405180910390a150565b6121d0612616565b73ffffffffffffffffffffffffffffffffffffffff166121ee611eaf565b73ffffffffffffffffffffffffffffffffffffffff1614612244576040517f08c379a000000000000000000000000000000000000000000000000000000000815260040161223b90614f6f565b60405180910390fd5b670de0b6b3a76400008161225891906151f2565b601b8190555050565b6000600360008473ffffffffffffffffffffffffffffffffffffffff1673ffffffffffffffffffffffffffffffffffffffff16815260200190815260200160002060008373ffffffffffffffffffffffffffffffffffffffff1673ffffffffffffffffffffffffffffffffffffffff16815260200190815260200160002054905092915050565b6122f0612616565b73ffffffffffffffffffffffffffffffffffffffff1661230e611eaf565b73ffffffffffffffffffffffffffffffffffffffff1614612364576040517f08c379a000000000000000000000000000000000000000000000000000000000815260040161235b90614f6f565b60405180910390fd5b6000600460008373ffffffffffffffffffffffffffffffffffffffff1673ffffffffffffffffffffffffffffffffffffffff16815260200190815260200160002060006101000a81548160ff02191690831515021790555050565b6123c7612616565b73ffffffffffffffffffffffffffffffffffffffff166123e5611eaf565b73ffffffffffffffffffffffffffffffffffffffff161461243b576040517f08c379a000000000000000000000000000000000000000000000000000000000815260040161243290614f6f565b60405180910390fd5b670de0b6b3a76400008161244f91906151f2565b601c8190555050565b612460612616565b73ffffffffffffffffffffffffffffffffffffffff1661247e611eaf565b73ffffffffffffffffffffffffffffffffffffffff16146124d4576040517f08c379a00000000000000000000000000000000000000000000000000000000081526004016124cb90614f6f565b60405180910390fd5b600073ffffffffffffffffffffffffffffffffffffffff168173ffffffffffffffffffffffffffffffffffffffff161415612544576040517f08c379a000000000000000000000000000000000000000000000000000000000815260040161253b90614ecf565b60405180910390fd5b61254d81612ae8565b50565b612558612616565b73ffffffffffffffffffffffffffffffffffffffff16612576611eaf565b73ffffffffffffffffffffffffffffffffffffffff16146125cc576040517f08c379a00000000000000000000000000000000000000000000000000000000081526004016125c390614f6f565b60405180910390fd5b6125d4612c14565b600e54600f81905550600e5460118190555060125460138190555060145460158190555060165460178190555060185460198190555061261460016120f8565b565b600033905090565b600073ffffffffffffffffffffffffffffffffffffffff168373ffffffffffffffffffffffffffffffffffffffff16141561268e576040517f08c379a000000000000000000000000000000000000000000000000000000000815260040161268590614fcf565b60405180910390fd5b600073ffffffffffffffffffffffffffffffffffffffff168273ffffffffffffffffffffffffffffffffffffffff1614156126fe576040517f08c379a00000000000000000000000000000000000000000000000000000000081526004016126f590614eef565b60405180910390fd5b80600360008573ffffffffffffffffffffffffffffffffffffffff1673ffffffffffffffffffffffffffffffffffffffff16815260200190815260200160002060008473ffffffffffffffffffffffffffffffffffffffff1673ffffffffffffffffffffffffffffffffffffffff168152602001908152602001600020819055508173ffffffffffffffffffffffffffffffffffffffff168373ffffffffffffffffffffffffffffffffffffffff167f8c5be1e5ebec7d5bd14f71427d1e84f3dd0314c0f7b2291e5b200ac8c7c3b925836040516127dc919061504f565b60405180910390a3505050565b600073ffffffffffffffffffffffffffffffffffffffff168373ffffffffffffffffffffffffffffffffffffffff161415612859576040517f08c379a000000000000000000000000000000000000000000000000000000000815260040161285090614faf565b60405180910390fd5b600073ffffffffffffffffffffffffffffffffffffffff168273ffffffffffffffffffffffffffffffffffffffff1614156128c9576040517f08c379a00000000000000000000000000000000000000000000000000000000081526004016128c090614e8f565b60405180910390fd5b6000811161290c576040517f08c379a000000000000000000000000000000000000000000000000000000000815260040161290390614f8f565b60405180910390fd5b600061291730611b0a565b90506000601c54821015905080801561293d5750601a60149054906101000a900460ff16155b801561299557507f000000000000000000000000000000000000000000000000000000000000000073ffffffffffffffffffffffffffffffffffffffff168573ffffffffffffffffffffffffffffffffffffffff1614155b80156129ad5750601a60159054906101000a900460ff165b156129c157601c5491506129c082612c4c565b5b6129cc858585612d0d565b5050505050565b60008060006129e06131da565b9150915080826129f091906151c1565b9250505090565b6129ff614450565b6000612a0a83613510565b90506000612a3d8483602001518460400151856060015186608001518760a001518860c00151612a386129d3565b6135ee565b9050604051806101e0016040528082600001518152602001826020015181526020018260400151815260200182606001518152602001826080015181526020018260a0015181526020018260c0015181526020018260e00151815260200183600001518152602001836020015181526020018360400151815260200183606001518152602001836080015181526020018360a0015181526020018360c0015181525092505050919050565b60008060009054906101000a900473ffffffffffffffffffffffffffffffffffffffff169050816000806101000a81548173ffffffffffffffffffffffffffffffffffffffff021916908373ffffffffffffffffffffffffffffffffffffffff1602179055508173ffffffffffffffffffffffffffffffffffffffff168173ffffffffffffffffffffffffffffffffffffffff167f8be0079c531659141344cd1fd0a4f28419497f9722a3daafe3b4186f6b6457e060405160405180910390a35050565b600e54600f819055506010546011819055506018546019819055506012546013819055506014546015819055506016546017819055506000600e8190555060006018819055506000601081905550600060128190555060006014819055506000601681905550565b600f54600e81905550601954601881905550601154601081905550601354601281905550601554601481905550601754601681905550565b6001601a60146101000a81548160ff0219169083151502179055506000600282612c7691906151c1565b905060008183612c86919061524c565b90506000479050612c96836136fd565b60008147612ca4919061524c565b9050612cb083826139bb565b7f17bbfb9a6069321b6ded73bd96327c9e6b7212a5cd51ff219cd61370acafb561848285604051612ce3939291906150c4565b60405180910390a1505050506000601a60146101000a81548160ff02191690831515021790555050565b600460008473ffffffffffffffffffffffffffffffffffffffff1673ffffffffffffffffffffffffffffffffffffffff16815260200190815260200160002060009054906101000a900460ff1680612dae5750600460008373ffffffffffffffffffffffffffffffffffffffff1673ffffffffffffffffffffffffffffffffffffffff16815260200190815260200160002060009054906101000a900460ff165b15612dc057612dbb612bac565b612e06565b601b54811115612e05576040517f08c379a0000000000000000000000000000000000000000000000000000000008152600401612dfc90614f4f565b60405180910390fd5b5b6000612e11826129f7565b9050612e268160e00151826101c00151613aab565b612e4481604001518260600151836101200151846101400151613bae565b600560008573ffffffffffffffffffffffffffffffffffffffff1673ffffffffffffffffffffffffffffffffffffffff16815260200190815260200160002060009054906101000a900460ff168015612ee75750600560008473ffffffffffffffffffffffffffffffffffffffff1673ffffffffffffffffffffffffffffffffffffffff16815260200190815260200160002060009054906101000a900460ff16155b15612efd57612ef884848484613d88565b613125565b600560008573ffffffffffffffffffffffffffffffffffffffff1673ffffffffffffffffffffffffffffffffffffffff16815260200190815260200160002060009054906101000a900460ff16158015612fa05750600560008473ffffffffffffffffffffffffffffffffffffffff1673ffffffffffffffffffffffffffffffffffffffff16815260200190815260200160002060009054906101000a900460ff165b15612fb557612fb0848483613f02565b613124565b600560008573ffffffffffffffffffffffffffffffffffffffff1673ffffffffffffffffffffffffffffffffffffffff16815260200190815260200160002060009054906101000a900460ff161580156130595750600560008473ffffffffffffffffffffffffffffffffffffffff1673ffffffffffffffffffffffffffffffffffffffff16815260200190815260200160002060009054906101000a900460ff16155b1561306e57613069848483614080565b613123565b600560008573ffffffffffffffffffffffffffffffffffffffff1673ffffffffffffffffffffffffffffffffffffffff16815260200190815260200160002060009054906101000a900460ff1680156131105750600560008473ffffffffffffffffffffffffffffffffffffffff1673ffffffffffffffffffffffffffffffffffffffff16815260200190815260200160002060009054906101000a900460ff165b1561312257613121848484846141a3565b5b5b5b5b600460008573ffffffffffffffffffffffffffffffffffffffff1673ffffffffffffffffffffffffffffffffffffffff16815260200190815260200160002060009054906101000a900460ff16806131c65750600460008473ffffffffffffffffffffffffffffffffffffffff1673ffffffffffffffffffffffffffffffffffffffff16815260200190815260200160002060009054906101000a900460ff165b156131d4576131d3612c14565b5b50505050565b6000806000600b5490506000600a54905060005b6006805490508110156134da5782600160006006848154811061323a577f4e487b7100000000000000000000000000000000000000000000000000000000600052603260045260246000fd5b9060005260206000200160009054906101000a900473ffffffffffffffffffffffffffffffffffffffff1673ffffffffffffffffffffffffffffffffffffffff1673ffffffffffffffffffffffffffffffffffffffff16815260200190815260200160002054118061334e57508160026000600684815481106132e6577f4e487b7100000000000000000000000000000000000000000000000000000000600052603260045260246000fd5b9060005260206000200160009054906101000a900473ffffffffffffffffffffffffffffffffffffffff1673ffffffffffffffffffffffffffffffffffffffff1673ffffffffffffffffffffffffffffffffffffffff16815260200190815260200160002054115b1561336557600b54600a549450945050505061350c565b60016000600683815481106133a3577f4e487b7100000000000000000000000000000000000000000000000000000000600052603260045260246000fd5b9060005260206000200160009054906101000a900473ffffffffffffffffffffffffffffffffffffffff1673ffffffffffffffffffffffffffffffffffffffff1673ffffffffffffffffffffffffffffffffffffffff1681526020019081526020016000205483613414919061524c565b92506002600060068381548110613454577f4e487b7100000000000000000000000000000000000000000000000000000000600052603260045260246000fd5b9060005260206000200160009054906101000a900473ffffffffffffffffffffffffffffffffffffffff1673ffffffffffffffffffffffffffffffffffffffff1673ffffffffffffffffffffffffffffffffffffffff16815260200190815260200160002054826134c5919061524c565b915080806134d290615370565b9150506131ee565b50600a54600b546134eb91906151c1565b82101561350357600b54600a5493509350505061350c565b81819350935050505b9091565b6135186144c6565b600061352383614378565b905060006135308461439c565b9050600061353d856143c0565b9050600061354a866143e4565b9050600061355787614408565b905060006135648861442c565b9050600081838587898b8e613579919061524c565b613583919061524c565b61358d919061524c565b613597919061524c565b6135a1919061524c565b6135ab919061524c565b90506040518060e0016040528082815260200188815260200187815260200186815260200185815260200184815260200183815250975050505050505050919050565b6135f6614503565b6000828a61360491906151f2565b90506000838a61361491906151f2565b90506000848a61362491906151f2565b90506000858a61363491906151f2565b90506000868a61364491906151f2565b90506000878a61365491906151f2565b90506000888a61366491906151f2565b9050600082848688858b8d613679919061524c565b613683919061524c565b61368d919061524c565b613697919061524c565b6136a1919061524c565b6136ab919061524c565b9050604051806101000160405280898152602001828152602001888152602001878152602001868152602001858152602001848152602001838152509850505050505050505098975050505050505050565b6000600267ffffffffffffffff811115613740577f4e487b7100000000000000000000000000000000000000000000000000000000600052604160045260246000fd5b60405190808252806020026020018201604052801561376e5781602001602082028036833780820191505090505b50905030816000815181106137ac577f4e487b7100000000000000000000000000000000000000000000000000000000600052603260045260246000fd5b602002602001019073ffffffffffffffffffffffffffffffffffffffff16908173ffffffffffffffffffffffffffffffffffffffff16815250507f000000000000000000000000000000000000000000000000000000000000000073ffffffffffffffffffffffffffffffffffffffff1663ad5c46486040518163ffffffff1660e01b815260040160206040518083038186803b15801561384c57600080fd5b505afa158015613860573d6000803e3d6000fd5b505050506040513d601f19601f8201168201806040525081019061388491906145da565b816001815181106138be577f4e487b7100000000000000000000000000000000000000000000000000000000600052603260045260246000fd5b602002602001019073ffffffffffffffffffffffffffffffffffffffff16908173ffffffffffffffffffffffffffffffffffffffff1681525050613923307f00000000000000000000000000000000000000000000000000000000000000008461261e565b7f000000000000000000000000000000000000000000000000000000000000000073ffffffffffffffffffffffffffffffffffffffff1663791ac9478360008430426040518663ffffffff1660e01b815260040161398595949392919061506a565b600060405180830381600087803b15801561399f57600080fd5b505af11580156139b3573d6000803e3d6000fd5b505050505050565b6139e6307f00000000000000000000000000000000000000000000000000000000000000008461261e565b7f000000000000000000000000000000000000000000000000000000000000000073ffffffffffffffffffffffffffffffffffffffff1663f305d719823085600080613a30611eaf565b426040518863ffffffff1660e01b8152600401613a5296959493929190614dd6565b6060604051808303818588803b158015613a6b57600080fd5b505af1158015613a7f573d6000803e3d6000fd5b50505050506040513d601f19601f82011682018060405250810190613aa49190614758565b5050505050565b81600160003073ffffffffffffffffffffffffffffffffffffffff1673ffffffffffffffffffffffffffffffffffffffff1681526020019081526020016000206000828254613afa919061516b565b92505081905550600560003073ffffffffffffffffffffffffffffffffffffffff1673ffffffffffffffffffffffffffffffffffffffff16815260200190815260200160002060009054906101000a900460ff1615613baa5780600260003073ffffffffffffffffffffffffffffffffffffffff1673ffffffffffffffffffffffffffffffffffffffff1681526020019081526020016000206000828254613ba2919061516b565b925050819055505b5050565b8284613bba919061516b565b600b6000828254613bcb919061524c565b9250508190555081600c6000828254613be4919061516b565b9250508190555080600a6000828254613bfd919061524c565b9250508190555080600d6000828254613c16919061516b565b925050819055508360016000601a60009054906101000a900473ffffffffffffffffffffffffffffffffffffffff1673ffffffffffffffffffffffffffffffffffffffff1673ffffffffffffffffffffffffffffffffffffffff1681526020019081526020016000206000828254613c8e919061516b565b9250508190555060056000601a60009054906101000a900473ffffffffffffffffffffffffffffffffffffffff1673ffffffffffffffffffffffffffffffffffffffff1673ffffffffffffffffffffffffffffffffffffffff16815260200190815260200160002060009054906101000a900460ff1615613d82578160026000601a60009054906101000a900473ffffffffffffffffffffffffffffffffffffffff1673ffffffffffffffffffffffffffffffffffffffff1673ffffffffffffffffffffffffffffffffffffffff1681526020019081526020016000206000828254613d7a919061516b565b925050819055505b50505050565b81600260008673ffffffffffffffffffffffffffffffffffffffff1673ffffffffffffffffffffffffffffffffffffffff1681526020019081526020016000206000828254613dd7919061524c565b925050819055508060000151600160008673ffffffffffffffffffffffffffffffffffffffff1673ffffffffffffffffffffffffffffffffffffffff1681526020019081526020016000206000828254613e31919061524c565b925050819055508060200151600160008573ffffffffffffffffffffffffffffffffffffffff1673ffffffffffffffffffffffffffffffffffffffff1681526020019081526020016000206000828254613e8b919061516b565b925050819055508273ffffffffffffffffffffffffffffffffffffffff168473ffffffffffffffffffffffffffffffffffffffff167fddf252ad1be2c89b69c2b068fc378daa952ba7f163c4a11628f55a4df523b3ef836101000151604051613ef4919061504f565b60405180910390a350505050565b8060000151600160008573ffffffffffffffffffffffffffffffffffffffff1673ffffffffffffffffffffffffffffffffffffffff1681526020019081526020016000206000828254613f55919061524c565b92505081905550806101000151600260008473ffffffffffffffffffffffffffffffffffffffff1673ffffffffffffffffffffffffffffffffffffffff1681526020019081526020016000206000828254613fb0919061516b565b925050819055508060200151600160008473ffffffffffffffffffffffffffffffffffffffff1673ffffffffffffffffffffffffffffffffffffffff168152602001908152602001600020600082825461400a919061516b565b925050819055508173ffffffffffffffffffffffffffffffffffffffff168373ffffffffffffffffffffffffffffffffffffffff167fddf252ad1be2c89b69c2b068fc378daa952ba7f163c4a11628f55a4df523b3ef836101000151604051614073919061504f565b60405180910390a3505050565b8060000151600160008573ffffffffffffffffffffffffffffffffffffffff1673ffffffffffffffffffffffffffffffffffffffff16815260200190815260200160002060008282546140d3919061524c565b925050819055508060200151600160008473ffffffffffffffffffffffffffffffffffffffff1673ffffffffffffffffffffffffffffffffffffffff168152602001908152602001600020600082825461412d919061516b565b925050819055508173ffffffffffffffffffffffffffffffffffffffff168373ffffffffffffffffffffffffffffffffffffffff167fddf252ad1be2c89b69c2b068fc378daa952ba7f163c4a11628f55a4df523b3ef836101000151604051614196919061504f565b60405180910390a3505050565b81600260008673ffffffffffffffffffffffffffffffffffffffff1673ffffffffffffffffffffffffffffffffffffffff16815260200190815260200160002060008282546141f2919061524c565b925050819055508060000151600160008673ffffffffffffffffffffffffffffffffffffffff1673ffffffffffffffffffffffffffffffffffffffff168152602001908152602001600020600082825461424c919061524c565b92505081905550806101000151600260008573ffffffffffffffffffffffffffffffffffffffff1673ffffffffffffffffffffffffffffffffffffffff16815260200190815260200160002060008282546142a7919061516b565b925050819055508060200151600160008573ffffffffffffffffffffffffffffffffffffffff1673ffffffffffffffffffffffffffffffffffffffff1681526020019081526020016000206000828254614301919061516b565b925050819055508273ffffffffffffffffffffffffffffffffffffffff168473ffffffffffffffffffffffffffffffffffffffff167fddf252ad1be2c89b69c2b068fc378daa952ba7f163c4a11628f55a4df523b3ef83610100015160405161436a919061504f565b60405180910390a350505050565b6000612710600e548361438b91906151f2565b61439591906151c1565b9050919050565b6000612710601054836143af91906151f2565b6143b991906151c1565b9050919050565b6000612710601254836143d391906151f2565b6143dd91906151c1565b9050919050565b6000612710601454836143f791906151f2565b61440191906151c1565b9050919050565b60006127106016548361441b91906151f2565b61442591906151c1565b9050919050565b60006127106018548361443f91906151f2565b61444991906151c1565b9050919050565b604051806101e001604052806000815260200160008152602001600081526020016000815260200160008152602001600081526020016000815260200160008152602001600081526020016000815260200160008152602001600081526020016000815260200160008152602001600081525090565b6040518060e00160405280600081526020016000815260200160008152602001600081526020016000815260200160008152602001600081525090565b60405180610100016040528060008152602001600081526020016000815260200160008152602001600081526020016000815260200160008152602001600081525090565b60008135905061455781615457565b92915050565b60008151905061456c81615457565b92915050565b6000813590506145818161546e565b92915050565b60008135905061459681615485565b92915050565b6000815190506145ab81615485565b92915050565b6000602082840312156145c357600080fd5b60006145d184828501614548565b91505092915050565b6000602082840312156145ec57600080fd5b60006145fa8482850161455d565b91505092915050565b6000806040838503121561461657600080fd5b600061462485828601614548565b925050602061463585828601614548565b9150509250929050565b60008060006060848603121561465457600080fd5b600061466286828701614548565b935050602061467386828701614548565b925050604061468486828701614587565b9150509250925092565b600080604083850312156146a157600080fd5b60006146af85828601614548565b92505060206146c085828601614587565b9150509250929050565b6000602082840312156146dc57600080fd5b60006146ea84828501614572565b91505092915050565b60006020828403121561470557600080fd5b600061471384828501614587565b91505092915050565b6000806040838503121561472f57600080fd5b600061473d85828601614587565b925050602061474e85828601614572565b9150509250929050565b60008060006060848603121561476d57600080fd5b600061477b8682870161459c565b935050602061478c8682870161459c565b925050604061479d8682870161459c565b9150509250925092565b60006147b383836147bf565b60208301905092915050565b6147c881615280565b82525050565b6147d781615280565b82525050565b60006147e882615126565b6147f28185615149565b93506147fd83615116565b8060005b8381101561482e57815161481588826147a7565b97506148208361513c565b925050600181019050614801565b5085935050505092915050565b61484481615292565b82525050565b614853816152d5565b82525050565b614862816152f9565b82525050565b600061487382615131565b61487d818561515a565b935061488d81856020860161530b565b61489681615446565b840191505092915050565b60006148ae60238361515a565b91507f45524332303a207472616e7366657220746f20746865207a65726f206164647260008301527f65737300000000000000000000000000000000000000000000000000000000006020830152604082019050919050565b6000614914602a8361515a565b91507f416d6f756e74206d757374206265206c657373207468616e20746f74616c207260008301527f65666c656374696f6e73000000000000000000000000000000000000000000006020830152604082019050919050565b600061497a60268361515a565b91507f4f776e61626c653a206e6577206f776e657220697320746865207a65726f206160008301527f64647265737300000000000000000000000000000000000000000000000000006020830152604082019050919050565b60006149e060228361515a565b91507f45524332303a20617070726f766520746f20746865207a65726f20616464726560008301527f73730000000000000000000000000000000000000000000000000000000000006020830152604082019050919050565b6000614a46601b8361515a565b91507f4163636f756e7420697320616c7265616479206578636c7564656400000000006000830152602082019050919050565b6000614a86601f8361515a565b91507f416d6f756e74206d757374206265206c657373207468616e20737570706c79006000830152602082019050919050565b6000614ac660288361515a565b91507f5472616e7366657220616d6f756e74206578636565647320746865206d61785460008301527f78416d6f756e742e0000000000000000000000000000000000000000000000006020830152604082019050919050565b6000614b2c60208361515a565b91507f4f776e61626c653a2063616c6c6572206973206e6f7420746865206f776e65726000830152602082019050919050565b6000614b6c60298361515a565b91507f5472616e7366657220616d6f756e74206d75737420626520677265617465722060008301527f7468616e207a65726f00000000000000000000000000000000000000000000006020830152604082019050919050565b6000614bd260258361515a565b91507f45524332303a207472616e736665722066726f6d20746865207a65726f20616460008301527f64726573730000000000000000000000000000000000000000000000000000006020830152604082019050919050565b6000614c3860248361515a565b91507f45524332303a20617070726f76652066726f6d20746865207a65726f2061646460008301527f72657373000000000000000000000000000000000000000000000000000000006020830152604082019050919050565b6000614c9e60228361515a565b91507f57652063616e206e6f74206578636c7564652050616e63616b6520726f75746560008301527f722e0000000000000000000000000000000000000000000000000000000000006020830152604082019050919050565b6000614d04602c8361515a565b91507f4578636c75646564206164647265737365732063616e6e6f742063616c6c207460008301527f6869732066756e6374696f6e00000000000000000000000000000000000000006020830152604082019050919050565b6000614d6a60198361515a565b91507f4578636c75646564206c69737420697320746f6f206c6f6e67000000000000006000830152602082019050919050565b614da6816152be565b82525050565b614db5816152c8565b82525050565b6000602082019050614dd060008301846147ce565b92915050565b600060c082019050614deb60008301896147ce565b614df86020830188614d9d565b614e056040830187614859565b614e126060830186614859565b614e1f60808301856147ce565b614e2c60a0830184614d9d565b979650505050505050565b6000602082019050614e4c600083018461483b565b92915050565b6000602082019050614e67600083018461484a565b92915050565b60006020820190508181036000830152614e878184614868565b905092915050565b60006020820190508181036000830152614ea8816148a1565b9050919050565b60006020820190508181036000830152614ec881614907565b9050919050565b60006020820190508181036000830152614ee88161496d565b9050919050565b60006020820190508181036000830152614f08816149d3565b9050919050565b60006020820190508181036000830152614f2881614a39565b9050919050565b60006020820190508181036000830152614f4881614a79565b9050919050565b60006020820190508181036000830152614f6881614ab9565b9050919050565b60006020820190508181036000830152614f8881614b1f565b9050919050565b60006020820190508181036000830152614fa881614b5f565b9050919050565b60006020820190508181036000830152614fc881614bc5565b9050919050565b60006020820190508181036000830152614fe881614c2b565b9050919050565b6000602082019050818103600083015261500881614c91565b9050919050565b6000602082019050818103600083015261502881614cf7565b9050919050565b6000602082019050818103600083015261504881614d5d565b9050919050565b60006020820190506150646000830184614d9d565b92915050565b600060a08201905061507f6000830188614d9d565b61508c6020830187614859565b818103604083015261509e81866147dd565b90506150ad60608301856147ce565b6150ba6080830184614d9d565b9695505050505050565b60006060820190506150d96000830186614d9d565b6150e66020830185614d9d565b6150f36040830184614d9d565b949350505050565b60006020820190506151106000830184614dac565b92915050565b6000819050602082019050919050565b600081519050919050565b600081519050919050565b6000602082019050919050565b600082825260208201905092915050565b600082825260208201905092915050565b6000615176826152be565b9150615181836152be565b9250827fffffffffffffffffffffffffffffffffffffffffffffffffffffffffffffffff038211156151b6576151b56153b9565b5b828201905092915050565b60006151cc826152be565b91506151d7836152be565b9250826151e7576151e66153e8565b5b828204905092915050565b60006151fd826152be565b9150615208836152be565b9250817fffffffffffffffffffffffffffffffffffffffffffffffffffffffffffffffff0483118215151615615241576152406153b9565b5b828202905092915050565b6000615257826152be565b9150615262836152be565b925082821015615275576152746153b9565b5b828203905092915050565b600061528b8261529e565b9050919050565b60008115159050919050565b600073ffffffffffffffffffffffffffffffffffffffff82169050919050565b6000819050919050565b600060ff82169050919050565b60006152e0826152e7565b9050919050565b60006152f28261529e565b9050919050565b6000615304826152be565b9050919050565b60005b8381101561532957808201518184015260208101905061530e565b83811115615338576000848401525b50505050565b6000600282049050600182168061535657607f821691505b6020821081141561536a57615369615417565b5b50919050565b600061537b826152be565b91507fffffffffffffffffffffffffffffffffffffffffffffffffffffffffffffffff8214156153ae576153ad6153b9565b5b600182019050919050565b7f4e487b7100000000000000000000000000000000000000000000000000000000600052601160045260246000fd5b7f4e487b7100000000000000000000000000000000000000000000000000000000600052601260045260246000fd5b7f4e487b7100000000000000000000000000000000000000000000000000000000600052602260045260246000fd5b6000601f19601f8301169050919050565b61546081615280565b811461546b57600080fd5b50565b61547781615292565b811461548257600080fd5b50565b61548e816152be565b811461549957600080fd5b5056fea264697066735822122097b8e195ea1edcc0e594a69d8089cb54dbfba364c9cf6f590129bec2fe8d1ed764736f6c63430008000033",
  "immutableReferences": {
    "1264": [
      {
        "length": 32,
        "start": 3307
      },
      {
        "length": 32,
        "start": 14312
      },
      {
        "length": 32,
        "start": 14590
      },
      {
        "length": 32,
        "start": 14629
      },
      {
        "length": 32,
        "start": 14785
      },
      {
        "length": 32,
        "start": 14824
      }
    ],
    "1266": [
      {
        "length": 32,
        "start": 5773
      },
      {
        "length": 32,
        "start": 10566
      }
    ]
  },
  "source": "// SPDX-License-Identifier: MIT\r\npragma solidity >=0.4.22 <0.9.0;\r\n\r\nimport \"@openzeppelin/contracts/token/ERC20/ERC20.sol\";\r\nimport \"@openzeppelin/contracts/token/ERC20/IERC20.sol\";\r\nimport \"@openzeppelin/contracts/access/Ownable.sol\";\r\nimport \"@openzeppelin/contracts/utils/Address.sol\";\r\nimport \"./interfaces/IUniswapV2.sol\";\r\n\r\n\r\ncontract HexaFinityToken is Context, IERC20, Ownable {\r\n    using Address for address;\r\n\r\n    struct RValuesStruct {\r\n        uint256 rAmount;\r\n        uint256 rTransferAmount;\r\n        uint256 rFee;\r\n        uint256 rBurn;\r\n        uint256 rSwapping;\r\n        uint256 rStaking;\r\n        uint256 rUnstaking;\r\n        uint256 rLiquidity;\r\n    }\r\n\r\n    struct TValuesStruct {\r\n        uint256 tTransferAmount;\r\n        uint256 tFee;\r\n        uint256 tBurn;\r\n        uint256 tSwapping;\r\n        uint256 tStaking;\r\n        uint256 tUnstaking;\r\n        uint256 tLiquidity;\r\n    }\r\n\r\n    struct ValuesStruct {\r\n        uint256 rAmount;\r\n        uint256 rTransferAmount;\r\n        uint256 rFee;\r\n        uint256 rBurn;\r\n        uint256 rSwapping;\r\n        uint256 rStaking;\r\n        uint256 rUnstaking;\r\n        uint256 rLiquidity;\r\n        uint256 tTransferAmount;\r\n        uint256 tFee;\r\n        uint256 tBurn;\r\n        uint256 tSwapping;\r\n        uint256 tStaking;\r\n        uint256 tUnstaking;\r\n        uint256 tLiquidity;\r\n    }\r\n\r\n    mapping(address => uint256) private _rOwned;\r\n    mapping(address => uint256) private _tOwned;\r\n    mapping(address => mapping(address => uint256)) private _allowances;\r\n\r\n    mapping(address => bool) private _isExcludedFromFee;\r\n\r\n    mapping(address => bool) private _isExcluded;\r\n    address[] private _excluded;\r\n    \r\n    string private _name = \"HexaFinity\";\r\n    string private _symbol = \"HEXA\";\r\n    uint8 private _decimals = 18;\r\n    uint256 private constant MAX = ~uint256(0);\r\n    uint256 private _tTotal = 6 * 10 ** 11 * 10 ** uint256(_decimals);\r\n    uint256 private _rTotal = (MAX - (MAX % _tTotal));\r\n    uint256 private _tFeeTotal;\r\n    uint256 private _tBurnTotal;\r\n\r\n    uint256 public _taxFee = 400;\r\n    uint256 private _previousTaxFee = _taxFee;\r\n\r\n    uint256 public _burnFee = 10;\r\n    uint256 private _previousBurnFee = _burnFee;\r\n\r\n    uint256 public _swappingFee = 20;\r\n    uint256 private _previousSwappingFee = _swappingFee;\r\n\r\n    uint256 public _stakingFee = 5;\r\n    uint256 private _previousStakingFee = _stakingFee;\r\n\r\n    uint256 public _unstakingFee = 20;\r\n    uint256 private _previousUnstakingFee = _unstakingFee;\r\n\r\n    uint256 public _liquidityFee = 200;\r\n    uint256 private _previousLiquidityFee = _liquidityFee;\r\n\r\n    uint256 public constant DENOMINATOR = 10000;\r\n\r\n    address public taxReceiveAddress = 0xa1e8112114CA3bf0a3e3e6D4CDD1b4fbF7ce25b3;\r\n\r\n    IUniswapV2Router02 public immutable uniswapV2Router;\r\n    address public immutable uniswapV2Pair;\r\n\r\n    bool inSwapAndLiquify;\r\n    bool public swapAndLiquifyEnabled = false;\r\n\r\n    uint256 public _maxTxAmount = 40 * 10 ** 6 * 10 ** uint256(_decimals);\r\n    uint256 public _numTokensSellToAddToLiquidity = 40 * 10 ** 6 * 10 ** uint256(_decimals);\r\n\r\n    modifier lockTheSwap {\r\n        inSwapAndLiquify = true;\r\n        _;\r\n        inSwapAndLiquify = false;\r\n    }\r\n\r\n    constructor(address _routerAddress) {\r\n        _rOwned[_msgSender()] = _rTotal;\r\n\r\n        IUniswapV2Router02 _uniswapV2Router = IUniswapV2Router02(_routerAddress); // PCS V2\r\n        // Create a uniswap pair for this new token\r\n        uniswapV2Pair = IUniswapV2Factory(_uniswapV2Router.factory()).createPair(address(this), _uniswapV2Router.WETH());\r\n\r\n        // set the rest of the contract variables\r\n        uniswapV2Router = _uniswapV2Router;\r\n\r\n        //exclude owner and this contract from fee\r\n        _isExcludedFromFee[owner()] = true;\r\n        _isExcludedFromFee[address(this)] = true;\r\n        _isExcludedFromFee[_routerAddress] = true;\r\n\r\n        emit Transfer(address(0), _msgSender(), _tTotal);\r\n    }\r\n\r\n    function name() public view returns (string memory) {\r\n        return _name;\r\n    }\r\n\r\n    function symbol() public view returns (string memory) {\r\n        return _symbol;\r\n    }\r\n\r\n    function decimals() public view returns (uint8) {\r\n        return _decimals;\r\n    }\r\n\r\n    function totalSupply() public view override returns (uint256) {\r\n        return _tTotal;\r\n    }\r\n\r\n    function balanceOf(address account) public view override returns (uint256) {\r\n        if (_isExcluded[account]) return _tOwned[account];\r\n        return tokenFromReflection(_rOwned[account]);\r\n    }\r\n\r\n    function transfer(address recipient, uint256 amount) public override returns (bool) {\r\n        _transfer(_msgSender(), recipient, amount);\r\n        return true;\r\n    }\r\n\r\n    function allowance(address owner, address spender) public view override returns (uint256) {\r\n        return _allowances[owner][spender];\r\n    }\r\n\r\n    function approve(address spender, uint256 amount) public override returns (bool) {\r\n        _approve(_msgSender(), spender, amount);\r\n        return true;\r\n    }\r\n\r\n    function transferFrom(address sender, address recipient, uint256 amount) public override returns (bool) {\r\n        _transfer(sender, recipient, amount);\r\n        _approve(sender, _msgSender(), _allowances[sender][_msgSender()] - amount);\r\n        return true;\r\n    }\r\n\r\n    function increaseAllowance(address spender, uint256 addedValue) public virtual returns (bool) {\r\n        _approve(_msgSender(), spender, _allowances[_msgSender()][spender] + addedValue);\r\n        return true;\r\n    }\r\n\r\n    function decreaseAllowance(address spender, uint256 subtractedValue) public virtual returns (bool) {\r\n        _approve(_msgSender(), spender, _allowances[_msgSender()][spender] - subtractedValue);\r\n        return true;\r\n    }\r\n\r\n    function isExcludedFromReward(address account) public view returns (bool) {\r\n        return _isExcluded[account];\r\n    }\r\n\r\n    function totalFees() public view returns (uint256) {\r\n        return _tFeeTotal;\r\n    }\r\n\r\n    function totalBurn() public view returns (uint256) {\r\n        return _tBurnTotal;\r\n    }\r\n\r\n    function deliver(uint256 tAmount) public {\r\n        address sender = _msgSender();\r\n        require(!_isExcluded[sender], \"Excluded addresses cannot call this function\");\r\n        uint256 rAmount = tAmount * _getRate();\r\n        _rOwned[sender] -= rAmount;\r\n        _rTotal -= rAmount;\r\n        _tFeeTotal += tAmount;\r\n    }\r\n\r\n    function reflectionFromToken(uint256 tAmount, bool deductTransferFee) public view returns (uint256) {\r\n        require(tAmount <= _tTotal, \"Amount must be less than supply\");\r\n        if (!deductTransferFee) {\r\n            uint256 rAmount = tAmount * _getRate();\r\n            return rAmount;\r\n        } else {\r\n            uint256 rTransferAmount = _getValues(tAmount).rTransferAmount;\r\n            return rTransferAmount;\r\n        }\r\n    }\r\n\r\n    function tokenFromReflection(uint256 rAmount) public view returns (uint256) {\r\n        require(rAmount <= _rTotal, \"Amount must be less than total reflections\");\r\n        uint256 currentRate = _getRate();\r\n        return rAmount / currentRate;\r\n    }\r\n\r\n    function excludeFromReward(address account) public onlyOwner() {\r\n        require(account != 0x10ED43C718714eb63d5aA57B78B54704E256024E, 'We can not exclude Pancake router.');\r\n        require(!_isExcluded[account], \"Account is already excluded\");\r\n        require(_excluded.length < 50, \"Excluded list is too long\");\r\n        if (_rOwned[account] > 0) {\r\n            _tOwned[account] = tokenFromReflection(_rOwned[account]);\r\n        }\r\n        _isExcluded[account] = true;\r\n        _excluded.push(account);\r\n    }\r\n\r\n    function includeInReward(address account) external onlyOwner() {\r\n        require(_isExcluded[account], \"Account is already excluded\");\r\n        for (uint256 i = 0; i < _excluded.length; i++) {\r\n            if (_excluded[i] == account) {\r\n                _excluded[i] = _excluded[_excluded.length - 1];\r\n                _tOwned[account] = 0;\r\n                _isExcluded[account] = false;\r\n                _excluded.pop();\r\n                break;\r\n            }\r\n        }\r\n    }\r\n\r\n    //to recieve ETH from uniswapV2Router when swaping\r\n    receive() external payable {}\r\n\r\n    function _distributeFee(uint256 rFee, uint256 rBurn, uint256 tFee, uint256 tBurn) private {\r\n        _rTotal -= (rFee + rBurn);\r\n        _tFeeTotal += tFee;\r\n        _tTotal -= tBurn;\r\n        _tBurnTotal += tBurn;\r\n\r\n        _rOwned[taxReceiveAddress] += rFee;\r\n        if (_isExcluded[taxReceiveAddress]) {\r\n            _tOwned[taxReceiveAddress] += tFee;\r\n        }\r\n    }\r\n\r\n    function _getValues(uint256 tAmount) private view returns (ValuesStruct memory) {\r\n        TValuesStruct memory tvs = _getTValues(tAmount);\r\n        RValuesStruct memory rvs = _getRValues(tAmount, tvs.tFee, tvs.tBurn, tvs.tSwapping, tvs.tStaking, tvs.tUnstaking, tvs.tLiquidity, _getRate());\r\n\r\n        return ValuesStruct(\r\n            rvs.rAmount,\r\n            rvs.rTransferAmount,\r\n            rvs.rFee,\r\n            rvs.rBurn,\r\n            rvs.rSwapping,\r\n            rvs.rStaking,\r\n            rvs.rUnstaking,\r\n            rvs.rLiquidity,\r\n            tvs.tTransferAmount,\r\n            tvs.tFee,\r\n            tvs.tBurn,\r\n            tvs.tSwapping,\r\n            tvs.tStaking,\r\n            tvs.tUnstaking,\r\n            tvs.tLiquidity\r\n        );\r\n    }\r\n\r\n    function _getTValues(uint256 tAmount) private view returns (TValuesStruct memory) {\r\n        uint256 tFee = calculateTaxFee(tAmount);\r\n        uint256 tBurn = calculateBurnFee(tAmount);\r\n        uint256 tSwapping = calculateSwappingFee(tAmount);\r\n        uint256 tStaking = calculateStakingFee(tAmount);\r\n        uint256 tUnstaking = calculateUnstakingFee(tAmount);\r\n        uint256 tLiquidity = calculateLiquidityFee(tAmount);\r\n        uint256 tTransferAmount = tAmount - tFee - tBurn - tSwapping - tStaking - tUnstaking - tLiquidity;\r\n        return TValuesStruct(tTransferAmount, tFee, tBurn, tSwapping, tStaking, tUnstaking, tLiquidity);\r\n    }\r\n\r\n    function _getRValues(uint256 _tAmount, uint256 _tFee, uint256 _tBurn, uint256 _tSwapping, uint256 _tStaking, uint256 _tUnstaking, uint256 _tLiquidity, uint256 _currentRate) private view returns (RValuesStruct memory) {\r\n        uint256 _rAmount = _tAmount * _currentRate;\r\n        uint256 _rFee = _tFee * _currentRate;\r\n        uint256 _rBurn = _tBurn * _currentRate;\r\n        uint256 _rSwapping = _tSwapping * _currentRate;\r\n        uint256 _rStaking = _tStaking * _currentRate;\r\n        uint256 _rUnstaking = _tUnstaking * _currentRate;\r\n        uint256 _rLiquidity = _tLiquidity * _currentRate;\r\n        uint256 _rTransferAmount = _rAmount - _rFee - _rLiquidity - _rBurn - _rSwapping - _rStaking - _rUnstaking;\r\n        return RValuesStruct(_rAmount, _rTransferAmount, _rFee, _rBurn, _rSwapping, _rStaking, _rUnstaking, _rLiquidity);\r\n    }\r\n\r\n    function _getRate() private view returns (uint256) {\r\n        (uint256 rSupply, uint256 tSupply) = _getCurrentSupply();\r\n        return rSupply / tSupply;\r\n    }\r\n\r\n    function _getCurrentSupply() private view returns (uint256, uint256) {\r\n        uint256 rSupply = _rTotal;\r\n        uint256 tSupply = _tTotal;\r\n        for (uint256 i = 0; i < _excluded.length; i++) {\r\n            if (_rOwned[_excluded[i]] > rSupply || _tOwned[_excluded[i]] > tSupply) return (_rTotal, _tTotal);\r\n            rSupply = rSupply - _rOwned[_excluded[i]];\r\n            tSupply = tSupply - _tOwned[_excluded[i]];\r\n        }\r\n        if (rSupply < _rTotal / _tTotal) return (_rTotal, _tTotal);\r\n        return (rSupply, tSupply);\r\n    }\r\n\r\n    function _takeLiquidity(uint256 rLiquidity, uint256 tLiquidity) private {\r\n        _rOwned[address(this)] += rLiquidity;\r\n        if (_isExcluded[address(this)])\r\n            _tOwned[address(this)] += tLiquidity;\r\n    }\r\n\r\n    function calculateTaxFee(uint256 _amount) private view returns (uint256) {\r\n        return _amount * _taxFee / DENOMINATOR;\r\n    }\r\n\r\n    function calculateBurnFee(uint256 _amount) private view returns (uint256) {\r\n        return _amount * _burnFee / DENOMINATOR;\r\n    }\r\n\r\n    function calculateSwappingFee(uint256 _amount) private view returns (uint256) {\r\n        return _amount * _swappingFee / DENOMINATOR;\r\n    }\r\n    \r\n    function calculateStakingFee(uint256 _amount) private view returns (uint256) {\r\n        return _amount * _stakingFee / DENOMINATOR;\r\n    }\r\n\r\n    function calculateUnstakingFee(uint256 _amount) private view returns (uint256) {\r\n        return _amount * _unstakingFee / DENOMINATOR;\r\n    }\r\n\r\n    function calculateLiquidityFee(uint256 _amount) private view returns (uint256) {\r\n        return _amount * _liquidityFee / DENOMINATOR;\r\n    }\r\n\r\n    function removeAllFee() private {\r\n        _previousTaxFee = _taxFee;\r\n        _previousBurnFee = _burnFee;\r\n        _previousLiquidityFee = _liquidityFee;\r\n        _previousSwappingFee = _swappingFee;\r\n        _previousStakingFee = _stakingFee;\r\n        _previousUnstakingFee = _unstakingFee;\r\n        _taxFee = 0;\r\n        _liquidityFee = 0;\r\n        _burnFee = 0;\r\n        _swappingFee = 0;\r\n        _stakingFee = 0;\r\n        _unstakingFee = 0;\r\n    }\r\n\r\n    function restoreAllFee() private {\r\n        _taxFee = _previousTaxFee;\r\n        _liquidityFee = _previousLiquidityFee;\r\n        _burnFee = _previousBurnFee;\r\n        _swappingFee = _previousSwappingFee;\r\n        _stakingFee = _previousStakingFee;\r\n        _unstakingFee = _previousUnstakingFee;\r\n\r\n    }\r\n\r\n    function isExcludedFromFee(address account) public view returns (bool) {\r\n        return _isExcludedFromFee[account];\r\n    }\r\n\r\n    function _approve(address owner, address spender, uint256 amount) private {\r\n        require(owner != address(0), \"ERC20: approve from the zero address\");\r\n        require(spender != address(0), \"ERC20: approve to the zero address\");\r\n\r\n        _allowances[owner][spender] = amount;\r\n        emit Approval(owner, spender, amount);\r\n    }\r\n\r\n    function _transfer(\r\n        address from,\r\n        address to,\r\n        uint256 amount\r\n    ) private {\r\n        require(from != address(0), \"ERC20: transfer from the zero address\");\r\n        require(to != address(0), \"ERC20: transfer to the zero address\");\r\n        require(amount > 0, \"Transfer amount must be greater than zero\");\r\n\r\n        // is the token balance of this contract address over the min number of\r\n        // tokens that we need to initiate a swap + liquidity lock?\r\n        // also, don't get caught in a circular liquidity event.\r\n        // also, don't swap & liquify if sender is uniswap pair.\r\n        uint256 contractTokenBalance = balanceOf(address(this));\r\n        bool overMinTokenBalance = contractTokenBalance >= _numTokensSellToAddToLiquidity;\r\n        if (\r\n            overMinTokenBalance &&\r\n            !inSwapAndLiquify &&\r\n            from != uniswapV2Pair &&\r\n            swapAndLiquifyEnabled\r\n        ) {\r\n            contractTokenBalance = _numTokensSellToAddToLiquidity;\r\n            //add liquidity\r\n            swapAndLiquify(contractTokenBalance);\r\n        }\r\n\r\n        //transfer amount, it will take tax, burn, liquidity fee\r\n        _tokenTransfer(from, to, amount);\r\n    }\r\n\r\n    function swapAndLiquify(uint256 contractTokenBalance) private lockTheSwap {\r\n        // split the contract balance into halves\r\n        uint256 half = contractTokenBalance / 2;\r\n        uint256 otherHalf = contractTokenBalance - half;\r\n\r\n        // capture the contract's current ETH balance.\r\n        // this is so that we can capture exactly the amount of ETH that the\r\n        // swap creates, and not make the liquidity event include any ETH that\r\n        // has been manually sent to the contract\r\n        uint256 initialBalance = address(this).balance;\r\n\r\n        // swap tokens for ETH\r\n        swapTokensForEth(half);\r\n        // <- this breaks the ETH -> HATE swap when swap+liquify is triggered\r\n\r\n        // how much ETH did we just swap into?\r\n        uint256 newBalance = address(this).balance - initialBalance;\r\n\r\n        // add liquidity to uniswap\r\n        addLiquidity(otherHalf, newBalance);\r\n\r\n        emit SwapAndLiquify(half, newBalance, otherHalf);\r\n    }\r\n\r\n    function swapTokensForEth(uint256 tokenAmount) private {\r\n        // generate the uniswap pair path of token -> weth\r\n        address[] memory path = new address[](2);\r\n        path[0] = address(this);\r\n        path[1] = uniswapV2Router.WETH();\r\n\r\n        _approve(address(this), address(uniswapV2Router), tokenAmount);\r\n\r\n        // make the swap\r\n        uniswapV2Router.swapExactTokensForETHSupportingFeeOnTransferTokens(\r\n            tokenAmount,\r\n            0, // accept any amount of ETH\r\n            path,\r\n            address(this),\r\n            block.timestamp\r\n        );\r\n    }\r\n\r\n    function addLiquidity(uint256 tokenAmount, uint256 ethAmount) private {\r\n        // approve token transfer to cover all possible scenarios\r\n        _approve(address(this), address(uniswapV2Router), tokenAmount);\r\n\r\n        // add the liquidity\r\n        uniswapV2Router.addLiquidityETH{value : ethAmount}(\r\n            address(this),\r\n            tokenAmount,\r\n            0, // slippage is unavoidable\r\n            0, // slippage is unavoidable\r\n            owner(),\r\n            block.timestamp\r\n        );\r\n    }\r\n\r\n    //this method is responsible for taking all fee, if takeFee is true\r\n    function _tokenTransfer(address sender, address recipient, uint256 amount) private {\r\n        if (_isExcludedFromFee[sender] || _isExcludedFromFee[recipient]) {\r\n            removeAllFee();\r\n        }\r\n        else {\r\n            require(amount <= _maxTxAmount, \"Transfer amount exceeds the maxTxAmount.\");\r\n        }\r\n\r\n        ValuesStruct memory vs = _getValues(amount);\r\n        _takeLiquidity(vs.rLiquidity, vs.tLiquidity);\r\n        _distributeFee(vs.rFee, vs.rBurn, vs.tFee, vs.tBurn);\r\n\r\n        if (_isExcluded[sender] && !_isExcluded[recipient]) {\r\n            _transferFromExcluded(sender, recipient, amount, vs);\r\n        } else if (!_isExcluded[sender] && _isExcluded[recipient]) {\r\n            _transferToExcluded(sender, recipient, vs);\r\n        } else if (!_isExcluded[sender] && !_isExcluded[recipient]) {\r\n            _transferStandard(sender, recipient, vs);\r\n        } else if (_isExcluded[sender] && _isExcluded[recipient]) {\r\n            _transferBothExcluded(sender, recipient, amount, vs);\r\n        }\r\n\r\n        if (_isExcludedFromFee[sender] || _isExcludedFromFee[recipient])\r\n            restoreAllFee();\r\n    }\r\n\r\n    function _transferStandard(address sender, address recipient, ValuesStruct memory vs) private {\r\n        _rOwned[sender] -= vs.rAmount;\r\n        _rOwned[recipient] += vs.rTransferAmount;\r\n        emit Transfer(sender, recipient, vs.tTransferAmount);\r\n    }\r\n\r\n    function _transferToExcluded(address sender, address recipient, ValuesStruct memory vs) private {\r\n        _rOwned[sender] -= vs.rAmount;\r\n        _tOwned[recipient] += vs.tTransferAmount;\r\n        _rOwned[recipient] += vs.rTransferAmount;\r\n        emit Transfer(sender, recipient, vs.tTransferAmount);\r\n    }\r\n\r\n    function _transferFromExcluded(address sender, address recipient, uint256 tAmount, ValuesStruct memory vs) private {\r\n        _tOwned[sender] -= tAmount;\r\n        _rOwned[sender] -= vs.rAmount;\r\n        _rOwned[recipient] += vs.rTransferAmount;\r\n        emit Transfer(sender, recipient, vs.tTransferAmount);\r\n    }\r\n\r\n    function _transferBothExcluded(address sender, address recipient, uint256 tAmount, ValuesStruct memory vs) private {\r\n        _tOwned[sender] -= tAmount;\r\n        _rOwned[sender] -= vs.rAmount;\r\n        _tOwned[recipient] += vs.tTransferAmount;\r\n        _rOwned[recipient] += vs.rTransferAmount;\r\n        emit Transfer(sender, recipient, vs.tTransferAmount);\r\n    }\r\n\r\n    function excludeFromFee(address account) public onlyOwner {\r\n        _isExcludedFromFee[account] = true;\r\n    }\r\n\r\n    function includeInFee(address account) public onlyOwner {\r\n        _isExcludedFromFee[account] = false;\r\n    }\r\n\r\n    //Call this function after finalizing the presale\r\n    function enableAllFees() external onlyOwner() {\r\n        restoreAllFee();\r\n        _previousTaxFee = _taxFee;\r\n        _previousBurnFee = _taxFee;\r\n        _previousSwappingFee = _swappingFee;\r\n        _previousStakingFee = _stakingFee;\r\n        _previousUnstakingFee = _unstakingFee;\r\n        _previousLiquidityFee = _liquidityFee;\r\n        setSwapAndLiquifyEnabled(true);\r\n    }\r\n\r\n    function disableAllFees() external onlyOwner() {\r\n        removeAllFee();\r\n        setSwapAndLiquifyEnabled(false);\r\n    }\r\n\r\n    function setTaxReceiveAddress(address newWallet) external onlyOwner {\r\n        taxReceiveAddress = newWallet;\r\n    }\r\n\r\n    function setMaxTxPercent(uint256 maxTxAmount) external onlyOwner {\r\n        _maxTxAmount = maxTxAmount * 10 ** 18;\r\n    }\r\n\r\n    function setNumTokensSellToAddToLiquidity(uint256 numTokensSellToAddToLiquidity) external onlyOwner {\r\n        _numTokensSellToAddToLiquidity = numTokensSellToAddToLiquidity * 10 ** 18;\r\n    }\r\n\r\n    function setSwapAndLiquifyEnabled(bool _enabled) public onlyOwner {\r\n        swapAndLiquifyEnabled = _enabled;\r\n        emit SwapAndLiquifyEnabledUpdated(_enabled);\r\n    }\r\n\r\n    function setTaxFee(uint256 taxFee) external onlyOwner {\r\n        _taxFee = taxFee;\r\n    }\r\n\r\n    function setBurnFee(uint256 burnFee) external onlyOwner {\r\n        _burnFee = burnFee;\r\n    }\r\n\r\n    function setSwappingFee(uint256 swappingFee) external onlyOwner {\r\n        _swappingFee = swappingFee;\r\n    }\r\n\r\n    function setStakingFee(uint256 stakingFee) external onlyOwner {\r\n        _stakingFee = stakingFee;\r\n    }\r\n\r\n    function setUnstakingFee(uint256 unstakingFee) external onlyOwner {\r\n        _unstakingFee = unstakingFee;\r\n    }\r\n\r\n    function setLiquidityFee(uint256 liquidityFee) external onlyOwner {\r\n        _liquidityFee = liquidityFee;\r\n    }\r\n\r\n\r\n    event MinTokensBeforeSwapUpdated(uint256 minTokensBeforeSwap);\r\n    event SwapAndLiquifyEnabledUpdated(bool enabled);\r\n    event SwapAndLiquify(\r\n        uint256 tokensSwapped,\r\n        uint256 ethReceived,\r\n        uint256 tokensIntoLiqudity\r\n    );\r\n    event UpdateSellFeeMultiplier(uint256 oldSellFeeMultiplier, uint256 newSellFeeMultiplier);\r\n}",
  "sourcePath": "D:\\blockchain\\Pedigrine\\work\\HexaFinity\\Token\\contracts\\HexaFinityToken.sol",
  "compiler": {
    "name": "solc",
    "version": "0.8.0+commit.c7dfd78e.Emscripten.clang"
  },
  "schemaVersion": "3.4.3",
  "updatedAt": "2021-12-27T19:47:08.417Z",
  "networkType": "ethereum",
  "devdoc": {
    "kind": "dev",
    "methods": {
      "allowance(address,address)": {
        "details": "Returns the remaining number of tokens that `spender` will be allowed to spend on behalf of `owner` through {transferFrom}. This is zero by default. This value changes when {approve} or {transferFrom} are called."
      },
      "approve(address,uint256)": {
        "details": "Sets `amount` as the allowance of `spender` over the caller's tokens. Returns a boolean value indicating whether the operation succeeded. IMPORTANT: Beware that changing an allowance with this method brings the risk that someone may use both the old and the new allowance by unfortunate transaction ordering. One possible solution to mitigate this race condition is to first reduce the spender's allowance to 0 and set the desired value afterwards: https://github.com/ethereum/EIPs/issues/20#issuecomment-263524729 Emits an {Approval} event."
      },
      "balanceOf(address)": {
        "details": "Returns the amount of tokens owned by `account`."
      },
      "owner()": {
        "details": "Returns the address of the current owner."
      },
      "renounceOwnership()": {
        "details": "Leaves the contract without owner. It will not be possible to call `onlyOwner` functions anymore. Can only be called by the current owner. NOTE: Renouncing ownership will leave the contract without an owner, thereby removing any functionality that is only available to the owner."
      },
      "totalSupply()": {
        "details": "Returns the amount of tokens in existence."
      },
      "transfer(address,uint256)": {
        "details": "Moves `amount` tokens from the caller's account to `recipient`. Returns a boolean value indicating whether the operation succeeded. Emits a {Transfer} event."
      },
      "transferFrom(address,address,uint256)": {
        "details": "Moves `amount` tokens from `sender` to `recipient` using the allowance mechanism. `amount` is then deducted from the caller's allowance. Returns a boolean value indicating whether the operation succeeded. Emits a {Transfer} event."
      },
      "transferOwnership(address)": {
        "details": "Transfers ownership of the contract to a new account (`newOwner`). Can only be called by the current owner."
      }
    },
    "version": 1
  },
  "userdoc": {
    "kind": "user",
    "methods": {},
    "version": 1
  }
}